script_sig=:OP_0 3044022051367de26f2120142f570a1b381841748f40848489cae8f3903673768a1dcc120220628137c5d4e0bb4e363c3137160a267771d91ab4a1236ad90a6c49118a8fd50801 30450221009446efda1596250ca50f962d85db2e8449ffd7c56073ac63299488b4aebd7fe302203d1f074b08316881aa6a83a6da84f4c20e373ad273b7bb7f8db60cd1bf594c6901 5214a175b609a7c37011420585f1fcf392fdda9a025414b1e9f0fa01914ff497607f99bf90dbd8a41bd8bb52ae
0100000001aebaf1e6083ddab1477ec6ba412fd1f482c0052ae7188c93cdaf669d220d0ccb00000000c000473044022051367de26f2120142f570a1b381841748f40848489cae8f3903673768a1dcc120220628137c5d4e0bb4e363c3137160a267771d91ab4a1236ad90a6c49118a8fd508014830450221009446efda1596250ca50f962d85db2e8449ffd7c56073ac63299488b4aebd7fe302203d1f074b08316881aa6a83a6da84f4c20e373ad273b7bb7f8db60cd1bf594c69012d5214a175b609a7c37011420585f1fcf392fdda9a025414b1e9f0fa01914ff497607f99bf90dbd8a41bd8bb52aeffffffff01401f0000000000001976a914a175b609a7c37011420585f1fcf392fdda9a025488ac00000000
